{
  "contractName": "PirateJournal",
  "abi": [
    {
      "inputs": [
        {
          "internalType": "string",
          "name": "name",
          "type": "string"
        },
        {
          "internalType": "string",
          "name": "surname",
          "type": "string"
        }
      ],
      "stateMutability": "nonpayable",
      "type": "constructor"
    },
    {
      "inputs": [],
      "name": "author",
      "outputs": [
        {
          "internalType": "string",
          "name": "name",
          "type": "string"
        },
        {
          "internalType": "string",
          "name": "surname",
          "type": "string"
        },
        {
          "internalType": "address",
          "name": "publicKey",
          "type": "address"
        }
      ],
      "stateMutability": "view",
      "type": "function",
      "constant": true
    },
    {
      "inputs": [
        {
          "internalType": "uint256",
          "name": "",
          "type": "uint256"
        }
      ],
      "name": "entries",
      "outputs": [
        {
          "internalType": "string",
          "name": "title",
          "type": "string"
        },
        {
          "internalType": "string",
          "name": "date",
          "type": "string"
        },
        {
          "internalType": "string",
          "name": "text",
          "type": "string"
        }
      ],
      "stateMutability": "view",
      "type": "function",
      "constant": true
    },
    {
      "inputs": [
        {
          "internalType": "uint256",
          "name": "page",
          "type": "uint256"
        },
        {
          "internalType": "string",
          "name": "title",
          "type": "string"
        },
        {
          "internalType": "string",
          "name": "date",
          "type": "string"
        },
        {
          "internalType": "string",
          "name": "text",
          "type": "string"
        }
      ],
      "name": "recordEntry",
      "outputs": [
        {
          "components": [
            {
              "internalType": "string",
              "name": "title",
              "type": "string"
            },
            {
              "internalType": "string",
              "name": "date",
              "type": "string"
            },
            {
              "internalType": "string",
              "name": "text",
              "type": "string"
            }
          ],
          "internalType": "struct JournalEntry",
          "name": "",
          "type": "tuple"
        }
      ],
      "stateMutability": "nonpayable",
      "type": "function"
    }
  ],
  "bytecode": "0x60806040523480156200001157600080fd5b50604051620011a0380380620011a0833981810160405281019062000037919062000346565b60405180606001604052808381526020018281526020013373ffffffffffffffffffffffffffffffffffffffff1681525060008082015181600001908051906020019062000087929190620000f9565b506020820151816001019080519060200190620000a6929190620000f9565b5060408201518160020160006101000a81548173ffffffffffffffffffffffffffffffffffffffff021916908373ffffffffffffffffffffffffffffffffffffffff16021790555090505050506200042f565b8280546200010790620003fa565b90600052602060002090601f0160209004810192826200012b576000855562000177565b82601f106200014657805160ff191683800117855562000177565b8280016001018555821562000177579182015b828111156200017657825182559160200191906001019062000159565b5b5090506200018691906200018a565b5090565b5b80821115620001a55760008160009055506001016200018b565b5090565b6000604051905090565b600080fd5b600080fd5b600080fd5b600080fd5b6000601f19601f8301169050919050565b7f4e487b7100000000000000000000000000000000000000000000000000000000600052604160045260246000fd5b6200021282620001c7565b810181811067ffffffffffffffff82111715620002345762000233620001d8565b5b80604052505050565b600062000249620001a9565b905062000257828262000207565b919050565b600067ffffffffffffffff8211156200027a5762000279620001d8565b5b6200028582620001c7565b9050602081019050919050565b60005b83811015620002b257808201518184015260208101905062000295565b83811115620002c2576000848401525b50505050565b6000620002df620002d9846200025c565b6200023d565b905082815260208101848484011115620002fe57620002fd620001c2565b5b6200030b84828562000292565b509392505050565b600082601f8301126200032b576200032a620001bd565b5b81516200033d848260208601620002c8565b91505092915050565b6000806040838503121562000360576200035f620001b3565b5b600083015167ffffffffffffffff811115620003815762000380620001b8565b5b6200038f8582860162000313565b925050602083015167ffffffffffffffff811115620003b357620003b2620001b8565b5b620003c18582860162000313565b9150509250929050565b7f4e487b7100000000000000000000000000000000000000000000000000000000600052602260045260246000fd5b600060028204905060018216806200041357607f821691505b602082108103620004295762000428620003cb565b5b50919050565b610d61806200043f6000396000f3fe608060405234801561001057600080fd5b50600436106100415760003560e01c806377162b5314610046578063a6c3e6b914610076578063b30906d414610096575b600080fd5b610060600480360381019061005b919061092d565b6100c8565b60405161006d9190610ace565b60405180910390f35b61007e6103cf565b60405161008d93929190610b7b565b60405180910390f35b6100b060048036038101906100ab9190610bc0565b610517565b6040516100bf93929190610bed565b60405180910390f35b6100d06106d9565b600060020160009054906101000a900473ffffffffffffffffffffffffffffffffffffffff1673ffffffffffffffffffffffffffffffffffffffff163373ffffffffffffffffffffffffffffffffffffffff1614610163576040517f08c379a000000000000000000000000000000000000000000000000000000000815260040161015a90610cab565b60405180910390fd5b60006040518060600160405280868152602001858152602001848152509050806003600088815260200190815260200160002060008201518160000190805190602001906101b29291906106fa565b5060208201518160010190805190602001906101cf9291906106fa565b5060408201518160020190805190602001906101ec9291906106fa565b509050506003600087815260200190815260200160002060405180606001604052908160008201805461021e90610cfa565b80601f016020809104026020016040519081016040528092919081815260200182805461024a90610cfa565b80156102975780601f1061026c57610100808354040283529160200191610297565b820191906000526020600020905b81548152906001019060200180831161027a57829003601f168201915b505050505081526020016001820180546102b090610cfa565b80601f01602080910402602001604051908101604052809291908181526020018280546102dc90610cfa565b80156103295780601f106102fe57610100808354040283529160200191610329565b820191906000526020600020905b81548152906001019060200180831161030c57829003601f168201915b5050505050815260200160028201805461034290610cfa565b80601f016020809104026020016040519081016040528092919081815260200182805461036e90610cfa565b80156103bb5780601f10610390576101008083540402835291602001916103bb565b820191906000526020600020905b81548152906001019060200180831161039e57829003601f168201915b505050505081525050915050949350505050565b60008060000180546103e090610cfa565b80601f016020809104026020016040519081016040528092919081815260200182805461040c90610cfa565b80156104595780601f1061042e57610100808354040283529160200191610459565b820191906000526020600020905b81548152906001019060200180831161043c57829003601f168201915b50505050509080600101805461046e90610cfa565b80601f016020809104026020016040519081016040528092919081815260200182805461049a90610cfa565b80156104e75780601f106104bc576101008083540402835291602001916104e7565b820191906000526020600020905b8154815290600101906020018083116104ca57829003601f168201915b5050505050908060020160009054906101000a900473ffffffffffffffffffffffffffffffffffffffff16905083565b600360205280600052604060002060009150905080600001805461053a90610cfa565b80601f016020809104026020016040519081016040528092919081815260200182805461056690610cfa565b80156105b35780601f10610588576101008083540402835291602001916105b3565b820191906000526020600020905b81548152906001019060200180831161059657829003601f168201915b5050505050908060010180546105c890610cfa565b80601f01602080910402602001604051908101604052809291908181526020018280546105f490610cfa565b80156106415780601f1061061657610100808354040283529160200191610641565b820191906000526020600020905b81548152906001019060200180831161062457829003601f168201915b50505050509080600201805461065690610cfa565b80601f016020809104026020016040519081016040528092919081815260200182805461068290610cfa565b80156106cf5780601f106106a4576101008083540402835291602001916106cf565b820191906000526020600020905b8154815290600101906020018083116106b257829003601f168201915b5050505050905083565b60405180606001604052806060815260200160608152602001606081525090565b82805461070690610cfa565b90600052602060002090601f016020900481019282610728576000855561076f565b82601f1061074157805160ff191683800117855561076f565b8280016001018555821561076f579182015b8281111561076e578251825591602001919060010190610753565b5b50905061077c9190610780565b5090565b5b80821115610799576000816000905550600101610781565b5090565b6000604051905090565b600080fd5b600080fd5b6000819050919050565b6107c4816107b1565b81146107cf57600080fd5b50565b6000813590506107e1816107bb565b92915050565b600080fd5b600080fd5b6000601f19601f8301169050919050565b7f4e487b7100000000000000000000000000000000000000000000000000000000600052604160045260246000fd5b61083a826107f1565b810181811067ffffffffffffffff8211171561085957610858610802565b5b80604052505050565b600061086c61079d565b90506108788282610831565b919050565b600067ffffffffffffffff82111561089857610897610802565b5b6108a1826107f1565b9050602081019050919050565b82818337600083830152505050565b60006108d06108cb8461087d565b610862565b9050828152602081018484840111156108ec576108eb6107ec565b5b6108f78482856108ae565b509392505050565b600082601f830112610914576109136107e7565b5b81356109248482602086016108bd565b91505092915050565b60008060008060808587031215610947576109466107a7565b5b6000610955878288016107d2565b945050602085013567ffffffffffffffff811115610976576109756107ac565b5b610982878288016108ff565b935050604085013567ffffffffffffffff8111156109a3576109a26107ac565b5b6109af878288016108ff565b925050606085013567ffffffffffffffff8111156109d0576109cf6107ac565b5b6109dc878288016108ff565b91505092959194509250565b600081519050919050565b600082825260208201905092915050565b60005b83811015610a22578082015181840152602081019050610a07565b83811115610a31576000848401525b50505050565b6000610a42826109e8565b610a4c81856109f3565b9350610a5c818560208601610a04565b610a65816107f1565b840191505092915050565b60006060830160008301518482036000860152610a8d8282610a37565b91505060208301518482036020860152610aa78282610a37565b91505060408301518482036040860152610ac18282610a37565b9150508091505092915050565b60006020820190508181036000830152610ae88184610a70565b905092915050565b600082825260208201905092915050565b6000610b0c826109e8565b610b168185610af0565b9350610b26818560208601610a04565b610b2f816107f1565b840191505092915050565b600073ffffffffffffffffffffffffffffffffffffffff82169050919050565b6000610b6582610b3a565b9050919050565b610b7581610b5a565b82525050565b60006060820190508181036000830152610b958186610b01565b90508181036020830152610ba98185610b01565b9050610bb86040830184610b6c565b949350505050565b600060208284031215610bd657610bd56107a7565b5b6000610be4848285016107d2565b91505092915050565b60006060820190508181036000830152610c078186610b01565b90508181036020830152610c1b8185610b01565b90508181036040830152610c2f8184610b01565b9050949350505050565b7f596f75277265206e6f742074686520617574686f72206f662074686973206a6f60008201527f75726e616c210000000000000000000000000000000000000000000000000000602082015250565b6000610c95602683610af0565b9150610ca082610c39565b604082019050919050565b60006020820190508181036000830152610cc481610c88565b9050919050565b7f4e487b7100000000000000000000000000000000000000000000000000000000600052602260045260246000fd5b60006002820490506001821680610d1257607f821691505b602082108103610d2557610d24610ccb565b5b5091905056fea2646970667358221220af8e09d496deb1143fed8ebcf18fe9f9475eb549314795773694ba31bf3b82ed64736f6c634300080d0033",
  "immutableReferences": {},
  "source": "// SPDX-License-Identifier: MIT\npragma solidity >=0.4.22 <0.9.0;\n\nstruct Pirate {\n    string name;\n    string surname;\n    address publicKey;\n}\n\nstruct JournalEntry {\n    string title;\n    string date;\n    string text;\n}\n\ncontract PirateJournal {\n    Pirate public author;\n\n    //  page number => entry\n    mapping(uint256 => JournalEntry) public entries;\n\n    modifier onlyAuthor() {\n        require(\n            msg.sender == author.publicKey,\n            \"You're not the author of this journal!\"\n        );\n        _;\n    }\n\n    constructor(string memory name, string memory surname) {\n        author = Pirate(name, surname, msg.sender);\n    }\n\n    function recordEntry(\n        uint256 page,\n        string memory title,\n        string memory date,\n        string memory text\n    ) external onlyAuthor returns (JournalEntry memory) {\n        JournalEntry memory entry = JournalEntry(title, date, text);\n        entries[page] = entry;\n        return entries[page];\n    }\n}\n",
  "sourcePath": "/home/system32uwu/Work/repos/smart-pirates/contracts/PirateJournal.sol",
  "compiler": {
    "name": "solc",
    "version": "0.8.13+commit.abaa5c0e.Emscripten.clang"
  },
  "schemaVersion": "3.4.6",
  "updatedAt": "2022-04-21T17:41:23.027Z",
  "networkType": "ethereum",
  "devdoc": {
    "kind": "dev",
    "methods": {},
    "version": 1
  },
  "userdoc": {
    "kind": "user",
    "methods": {},
    "version": 1
  }
}